{
  "contractName": "MerkleProof",
  "abi": [
    {
      "inputs": [
        {
          "internalType": "bytes32",
          "name": "root",
          "type": "bytes32"
        },
        {
          "internalType": "bytes32",
          "name": "leaf",
          "type": "bytes32"
        },
        {
          "internalType": "bytes32[]",
          "name": "proof",
          "type": "bytes32[]"
        }
      ],
      "name": "verify",
      "outputs": [
        {
          "internalType": "bool",
          "name": "",
          "type": "bool"
        }
      ],
      "stateMutability": "pure",
      "type": "function"
    }
  ],
  "bytecode": "0x608060405234801561001057600080fd5b50610492806100206000396000f3fe608060405234801561001057600080fd5b506004361061002b5760003560e01c80633423e54814610030575b600080fd5b61004a600480360381019061004591906102b9565b610060565b6040516100579190610343565b60405180910390f35b60008083905060005b83518110156101085760008482815181106100875761008661035e565b5b602002602001015190508083116100c85782816040516020016100ab9291906103ae565b6040516020818303038152906040528051906020012092506100f4565b80836040516020016100db9291906103ae565b6040516020818303038152906040528051906020012092505b50808061010090610413565b915050610069565b508481149150509392505050565b6000604051905090565b600080fd5b600080fd5b6000819050919050565b61013d8161012a565b811461014857600080fd5b50565b60008135905061015a81610134565b92915050565b600080fd5b6000601f19601f8301169050919050565b7f4e487b7100000000000000000000000000000000000000000000000000000000600052604160045260246000fd5b6101ae82610165565b810181811067ffffffffffffffff821117156101cd576101cc610176565b5b80604052505050565b60006101e0610116565b90506101ec82826101a5565b919050565b600067ffffffffffffffff82111561020c5761020b610176565b5b602082029050602081019050919050565b600080fd5b6000610235610230846101f1565b6101d6565b905080838252602082019050602084028301858111156102585761025761021d565b5b835b81811015610281578061026d888261014b565b84526020840193505060208101905061025a565b5050509392505050565b600082601f8301126102a05761029f610160565b5b81356102b0848260208601610222565b91505092915050565b6000806000606084860312156102d2576102d1610120565b5b60006102e08682870161014b565b93505060206102f18682870161014b565b925050604084013567ffffffffffffffff81111561031257610311610125565b5b61031e8682870161028b565b9150509250925092565b60008115159050919050565b61033d81610328565b82525050565b60006020820190506103586000830184610334565b92915050565b7f4e487b7100000000000000000000000000000000000000000000000000000000600052603260045260246000fd5b6000819050919050565b6103a86103a38261012a565b61038d565b82525050565b60006103ba8285610397565b6020820191506103ca8284610397565b6020820191508190509392505050565b7f4e487b7100000000000000000000000000000000000000000000000000000000600052601160045260246000fd5b6000819050919050565b600061041e82610409565b91507fffffffffffffffffffffffffffffffffffffffffffffffffffffffffffffffff821415610451576104506103da565b5b60018201905091905056fea2646970667358221220f9dccc0bf11c23bc0c1a9fd695f8c852e29f6dc7a6f2a0c0cf22dd058362dcc864736f6c634300080a0033",
  "immutableReferences": {},
  "source": "pragma solidity >=0.4.22 <0.9.0;\n\ncontract MerkleProof {\n    function verify(\n        bytes32 root,\n        bytes32 leaf,\n        bytes32[] memory proof\n    )\n    public\n    pure\n    returns (bool)\n    {\n        bytes32 computedHash = leaf;\n\n        for (uint256 i = 0; i < proof.length; i++) {\n            bytes32 proofElement = proof[i];\n\n            if (computedHash <= proofElement) {\n                // Hash(current computed hash + current element of the proof)\n                computedHash = keccak256(abi.encodePacked(computedHash, proofElement));\n            } else {\n                // Hash(current element of the proof + current computed hash)\n                computedHash = keccak256(abi.encodePacked(proofElement, computedHash));\n            }\n        }\n\n        // Check if the computed hash (root) is equal to the provided root\n        return computedHash == root;\n    }\n}",
  "sourcePath": "/Users/bitbarg/WebstormProjects/elrond_task/contracts/MerkleProof.sol",
  "compiler": {
    "name": "solc",
    "version": "0.8.10+commit.fc410830.Emscripten.clang"
  },
  "schemaVersion": "3.4.3",
  "updatedAt": "2022-02-27T17:10:17.262Z",
  "devdoc": {
    "kind": "dev",
    "methods": {},
    "version": 1
  },
  "userdoc": {
    "kind": "user",
    "methods": {},
    "version": 1
  }
}