{
  "contractName": "Simple",
  "abi": [
    {
      "inputs": [],
      "stateMutability": "nonpayable",
      "type": "constructor"
    },
    {
      "anonymous": false,
      "inputs": [
        {
          "indexed": true,
          "internalType": "address",
          "name": "previousOwner",
          "type": "address"
        },
        {
          "indexed": true,
          "internalType": "address",
          "name": "newOwner",
          "type": "address"
        }
      ],
      "name": "OwnershipTransferred",
      "type": "event"
    },
    {
      "anonymous": false,
      "inputs": [],
      "name": "RootHashChanged",
      "type": "event"
    },
    {
      "anonymous": false,
      "inputs": [
        {
          "indexed": false,
          "internalType": "uint256",
          "name": "",
          "type": "uint256"
        }
      ],
      "name": "StateChanged",
      "type": "event"
    },
    {
      "inputs": [],
      "name": "owner",
      "outputs": [
        {
          "internalType": "address",
          "name": "",
          "type": "address"
        }
      ],
      "stateMutability": "view",
      "type": "function"
    },
    {
      "inputs": [],
      "name": "renounceOwnership",
      "outputs": [],
      "stateMutability": "nonpayable",
      "type": "function"
    },
    {
      "inputs": [
        {
          "internalType": "address",
          "name": "newOwner",
          "type": "address"
        }
      ],
      "name": "transferOwnership",
      "outputs": [],
      "stateMutability": "nonpayable",
      "type": "function"
    },
    {
      "inputs": [
        {
          "internalType": "bytes32",
          "name": "hash",
          "type": "bytes32"
        }
      ],
      "name": "updateMTRoot",
      "outputs": [
        {
          "internalType": "bool",
          "name": "",
          "type": "bool"
        }
      ],
      "stateMutability": "nonpayable",
      "type": "function"
    },
    {
      "inputs": [],
      "name": "getState",
      "outputs": [
        {
          "internalType": "uint256",
          "name": "",
          "type": "uint256"
        }
      ],
      "stateMutability": "view",
      "type": "function"
    },
    {
      "inputs": [],
      "name": "getMTRoot",
      "outputs": [
        {
          "internalType": "bytes32",
          "name": "",
          "type": "bytes32"
        }
      ],
      "stateMutability": "view",
      "type": "function"
    },
    {
      "inputs": [
        {
          "internalType": "uint256",
          "name": "_state",
          "type": "uint256"
        },
        {
          "internalType": "bytes32[]",
          "name": "proofs",
          "type": "bytes32[]"
        }
      ],
      "name": "setState",
      "outputs": [],
      "stateMutability": "nonpayable",
      "type": "function"
    }
  ],
  "bytecode": "0x608060405234801561001057600080fd5b5061002d6100226100a360201b60201c565b6100ab60201b60201c565b60006001819055506040516100419061016f565b604051809103906000f08015801561005d573d6000803e3d6000fd5b50600360006101000a81548173ffffffffffffffffffffffffffffffffffffffff021916908373ffffffffffffffffffffffffffffffffffffffff16021790555061017c565b600033905090565b60008060009054906101000a900473ffffffffffffffffffffffffffffffffffffffff169050816000806101000a81548173ffffffffffffffffffffffffffffffffffffffff021916908373ffffffffffffffffffffffffffffffffffffffff1602179055508173ffffffffffffffffffffffffffffffffffffffff168173ffffffffffffffffffffffffffffffffffffffff167f8be0079c531659141344cd1fd0a4f28419497f9722a3daafe3b4186f6b6457e060405160405180910390a35050565b6104b280610f3683390190565b610dab8061018b6000396000f3fe608060405234801561001057600080fd5b506004361061007d5760003560e01c80638da5cb5b1161005b5780638da5cb5b146100c6578063a7a012e1146100e4578063f2fde38b14610114578063f4b1b806146101305761007d565b806313675815146100825780631865c57d1461009e578063715018a6146100bc575b600080fd5b61009c6004803603810190610097919061080e565b61014e565b005b6100a66102ac565b6040516100b39190610879565b60405180910390f35b6100c46102b6565b005b6100ce61033e565b6040516100db91906108d5565b60405180910390f35b6100fe60048036038101906100f991906108f0565b610367565b60405161010b9190610938565b60405180910390f35b61012e6004803603810190610129919061097f565b610467565b005b61013861055f565b60405161014591906109bb565b60405180910390f35b6000336040516020016101619190610a1e565b6040516020818303038152906040528051906020012090506000600360009054906101000a900473ffffffffffffffffffffffffffffffffffffffff1673ffffffffffffffffffffffffffffffffffffffff16633423e54860025484866040518463ffffffff1660e01b81526004016101dc93929190610af7565b602060405180830381865afa1580156101f9573d6000803e3d6000fd5b505050506040513d601f19601f8201168201806040525081019061021d9190610b61565b90506001151581151514610266576040517f08c379a000000000000000000000000000000000000000000000000000000000815260040161025d90610beb565b60405180910390fd5b836001819055507f3c20f49e01bfae9c61bfff26b5d8341dd8463f895dd1db3d003cada4e59506d760015460405161029e9190610879565b60405180910390a150505050565b6000600154905090565b6102be610569565b73ffffffffffffffffffffffffffffffffffffffff166102dc61033e565b73ffffffffffffffffffffffffffffffffffffffff1614610332576040517f08c379a000000000000000000000000000000000000000000000000000000000815260040161032990610c57565b60405180910390fd5b61033c6000610571565b565b60008060009054906101000a900473ffffffffffffffffffffffffffffffffffffffff16905090565b6000610371610569565b73ffffffffffffffffffffffffffffffffffffffff1661038f61033e565b73ffffffffffffffffffffffffffffffffffffffff16146103e5576040517f08c379a00000000000000000000000000000000000000000000000000000000081526004016103dc90610c57565b60405180910390fd5b6000801b82141561042b576040517f08c379a000000000000000000000000000000000000000000000000000000000815260040161042290610cc3565b60405180910390fd5b816002819055507f894fb753afcaa3ed61f514e3bb3ea3b965d635b2f415a7f23cc554265992d31260405160405180910390a160019050919050565b61046f610569565b73ffffffffffffffffffffffffffffffffffffffff1661048d61033e565b73ffffffffffffffffffffffffffffffffffffffff16146104e3576040517f08c379a00000000000000000000000000000000000000000000000000000000081526004016104da90610c57565b60405180910390fd5b600073ffffffffffffffffffffffffffffffffffffffff168173ffffffffffffffffffffffffffffffffffffffff161415610553576040517f08c379a000000000000000000000000000000000000000000000000000000000815260040161054a90610d55565b60405180910390fd5b61055c81610571565b50565b6000600254905090565b600033905090565b60008060009054906101000a900473ffffffffffffffffffffffffffffffffffffffff169050816000806101000a81548173ffffffffffffffffffffffffffffffffffffffff021916908373ffffffffffffffffffffffffffffffffffffffff1602179055508173ffffffffffffffffffffffffffffffffffffffff168173ffffffffffffffffffffffffffffffffffffffff167f8be0079c531659141344cd1fd0a4f28419497f9722a3daafe3b4186f6b6457e060405160405180910390a35050565b6000604051905090565b600080fd5b600080fd5b6000819050919050565b61065c81610649565b811461066757600080fd5b50565b60008135905061067981610653565b92915050565b600080fd5b6000601f19601f8301169050919050565b7f4e487b7100000000000000000000000000000000000000000000000000000000600052604160045260246000fd5b6106cd82610684565b810181811067ffffffffffffffff821117156106ec576106eb610695565b5b80604052505050565b60006106ff610635565b905061070b82826106c4565b919050565b600067ffffffffffffffff82111561072b5761072a610695565b5b602082029050602081019050919050565b600080fd5b6000819050919050565b61075481610741565b811461075f57600080fd5b50565b6000813590506107718161074b565b92915050565b600061078a61078584610710565b6106f5565b905080838252602082019050602084028301858111156107ad576107ac61073c565b5b835b818110156107d657806107c28882610762565b8452602084019350506020810190506107af565b5050509392505050565b600082601f8301126107f5576107f461067f565b5b8135610805848260208601610777565b91505092915050565b600080604083850312156108255761082461063f565b5b60006108338582860161066a565b925050602083013567ffffffffffffffff81111561085457610853610644565b5b610860858286016107e0565b9150509250929050565b61087381610649565b82525050565b600060208201905061088e600083018461086a565b92915050565b600073ffffffffffffffffffffffffffffffffffffffff82169050919050565b60006108bf82610894565b9050919050565b6108cf816108b4565b82525050565b60006020820190506108ea60008301846108c6565b92915050565b6000602082840312156109065761090561063f565b5b600061091484828501610762565b91505092915050565b60008115159050919050565b6109328161091d565b82525050565b600060208201905061094d6000830184610929565b92915050565b61095c816108b4565b811461096757600080fd5b50565b60008135905061097981610953565b92915050565b6000602082840312156109955761099461063f565b5b60006109a38482850161096a565b91505092915050565b6109b581610741565b82525050565b60006020820190506109d060008301846109ac565b92915050565b60008160601b9050919050565b60006109ee826109d6565b9050919050565b6000610a00826109e3565b9050919050565b610a18610a13826108b4565b6109f5565b82525050565b6000610a2a8284610a07565b60148201915081905092915050565b600081519050919050565b600082825260208201905092915050565b6000819050602082019050919050565b610a6e81610741565b82525050565b6000610a808383610a65565b60208301905092915050565b6000602082019050919050565b6000610aa482610a39565b610aae8185610a44565b9350610ab983610a55565b8060005b83811015610aea578151610ad18882610a74565b9750610adc83610a8c565b925050600181019050610abd565b5085935050505092915050565b6000606082019050610b0c60008301866109ac565b610b1960208301856109ac565b8181036040830152610b2b8184610a99565b9050949350505050565b610b3e8161091d565b8114610b4957600080fd5b50565b600081519050610b5b81610b35565b92915050565b600060208284031215610b7757610b7661063f565b5b6000610b8584828501610b4c565b91505092915050565b600082825260208201905092915050565b7f5065726d697373696f6e2044656e696564000000000000000000000000000000600082015250565b6000610bd5601183610b8e565b9150610be082610b9f565b602082019050919050565b60006020820190508181036000830152610c0481610bc8565b9050919050565b7f4f776e61626c653a2063616c6c6572206973206e6f7420746865206f776e6572600082015250565b6000610c41602083610b8e565b9150610c4c82610c0b565b602082019050919050565b60006020820190508181036000830152610c7081610c34565b9050919050565b7f68617368206d757374206e6f74206265207a65726f0000000000000000000000600082015250565b6000610cad601583610b8e565b9150610cb882610c77565b602082019050919050565b60006020820190508181036000830152610cdc81610ca0565b9050919050565b7f4f776e61626c653a206e6577206f776e657220697320746865207a65726f206160008201527f6464726573730000000000000000000000000000000000000000000000000000602082015250565b6000610d3f602683610b8e565b9150610d4a82610ce3565b604082019050919050565b60006020820190508181036000830152610d6e81610d32565b905091905056fea2646970667358221220887750af5f6bd0dc664d8b599d557212b835a59c2039bfb2959788fb1c2bd85864736f6c634300080a0033608060405234801561001057600080fd5b50610492806100206000396000f3fe608060405234801561001057600080fd5b506004361061002b5760003560e01c80633423e54814610030575b600080fd5b61004a600480360381019061004591906102b9565b610060565b6040516100579190610343565b60405180910390f35b60008083905060005b83518110156101085760008482815181106100875761008661035e565b5b602002602001015190508083116100c85782816040516020016100ab9291906103ae565b6040516020818303038152906040528051906020012092506100f4565b80836040516020016100db9291906103ae565b6040516020818303038152906040528051906020012092505b50808061010090610413565b915050610069565b508481149150509392505050565b6000604051905090565b600080fd5b600080fd5b6000819050919050565b61013d8161012a565b811461014857600080fd5b50565b60008135905061015a81610134565b92915050565b600080fd5b6000601f19601f8301169050919050565b7f4e487b7100000000000000000000000000000000000000000000000000000000600052604160045260246000fd5b6101ae82610165565b810181811067ffffffffffffffff821117156101cd576101cc610176565b5b80604052505050565b60006101e0610116565b90506101ec82826101a5565b919050565b600067ffffffffffffffff82111561020c5761020b610176565b5b602082029050602081019050919050565b600080fd5b6000610235610230846101f1565b6101d6565b905080838252602082019050602084028301858111156102585761025761021d565b5b835b81811015610281578061026d888261014b565b84526020840193505060208101905061025a565b5050509392505050565b600082601f8301126102a05761029f610160565b5b81356102b0848260208601610222565b91505092915050565b6000806000606084860312156102d2576102d1610120565b5b60006102e08682870161014b565b93505060206102f18682870161014b565b925050604084013567ffffffffffffffff81111561031257610311610125565b5b61031e8682870161028b565b9150509250925092565b60008115159050919050565b61033d81610328565b82525050565b60006020820190506103586000830184610334565b92915050565b7f4e487b7100000000000000000000000000000000000000000000000000000000600052603260045260246000fd5b6000819050919050565b6103a86103a38261012a565b61038d565b82525050565b60006103ba8285610397565b6020820191506103ca8284610397565b6020820191508190509392505050565b7f4e487b7100000000000000000000000000000000000000000000000000000000600052601160045260246000fd5b6000819050919050565b600061041e82610409565b91507fffffffffffffffffffffffffffffffffffffffffffffffffffffffffffffffff821415610451576104506103da565b5b60018201905091905056fea2646970667358221220f9dccc0bf11c23bc0c1a9fd695f8c852e29f6dc7a6f2a0c0cf22dd058362dcc864736f6c634300080a0033",
  "immutableReferences": {},
  "source": "pragma solidity >=0.4.22 <0.9.0;\n\nimport \"@openzeppelin/contracts/access/Ownable.sol\";\n\nimport \"./MerkleProof.sol\";\n\ncontract Simple is Ownable {\n    uint256 private state;\n    bytes32 private mtRootHash;\n    MerkleProof private _merkleProof;\n\n    event RootHashChanged();\n    event StateChanged(uint256);\n\n    constructor () public {\n        state = 0;\n        _merkleProof = new MerkleProof();\n    }\n\n    function updateMTRoot(bytes32 hash) public onlyOwner returns(bool) {\n        require(hash != 0, \"hash must not be zero\");\n        mtRootHash = hash;\n\n        emit RootHashChanged();\n        return true;\n    }\n\n    function getState() public view returns(uint256) {\n        return state;\n    }\n\n    function getMTRoot() public view returns(bytes32) {\n        return mtRootHash;\n    }\n\n    function setState(uint256 _state, bytes32[] memory proofs) public {\n        // Check the address is added to whitelist and has the right permission\n        bytes32 addr = keccak256(abi.encodePacked(msg.sender));\n        bool hasPermission =  _merkleProof.verify(mtRootHash, addr, proofs);\n        require(hasPermission == true, \"Permission Denied\");\n\n        state = _state;\n        emit StateChanged(state);\n    }\n}\n",
  "sourcePath": "/Users/bitbarg/WebstormProjects/elrond_task/contracts/Simple.sol",
  "compiler": {
    "name": "solc",
    "version": "0.8.10+commit.fc410830.Emscripten.clang"
  },
  "schemaVersion": "3.4.3",
  "updatedAt": "2022-02-27T17:10:17.265Z",
  "devdoc": {
    "kind": "dev",
    "methods": {
      "owner()": {
        "details": "Returns the address of the current owner."
      },
      "renounceOwnership()": {
        "details": "Leaves the contract without owner. It will not be possible to call `onlyOwner` functions anymore. Can only be called by the current owner. NOTE: Renouncing ownership will leave the contract without an owner, thereby removing any functionality that is only available to the owner."
      },
      "transferOwnership(address)": {
        "details": "Transfers ownership of the contract to a new account (`newOwner`). Can only be called by the current owner."
      }
    },
    "version": 1
  },
  "userdoc": {
    "kind": "user",
    "methods": {},
    "version": 1
  }
}